:020000040800F2
:100000006804002045010008E9170008EB17000804
:10001000EF170008F3170008F717000800000000AA
:10002000000000000000000000000000FB170008B6
:10003000FD17000800000000FF1700080118000865
:100040005F0100085F0100085F0100085F01000810
:100050005F0100085F0100085F0100085F01000800
:100060005F0100085F0100085F0100085F010008F0
:100070005F0100085F0100085F0100085F010008E0
:100080005F0100085F0100085F0100085F010008D0
:100090005F0100085F0100085F0100085F010008C0
:1000A0005F0100085F0100085F0100085F010008B0
:1000B0005F0100085F0100085F0100085F010008A0
:1000C0005F0100085F0100085F0100085F01000890
:1000D0005F010008091800085F0100085F010008BF
:1000E0005F0100085F0100085F0100085F01000870
:1000F0005F0100085F0100085F0100085F01000860
:100100005F0100085F0100085F0100085F0100084F
:100110005F0100085F0100085F0100085F0100083F
:100120005F0100085F0100085F0100085F0100082F
:10013000DFF80CD003F00CFD00480047131700084F
:10014000680400200648804706480047FEE7FEE7AF
:10015000FEE7FEE7FEE7FEE7FEE7FEE7FEE7FEE777
:1001600045020008310100080CB500200190009004
:100170006B48006840F480306949086000BF6848F7
:10018000006800F4003000900198401C0190009835
:1001900018B90198B0F5A06FF1D16148006810F46A
:1001A000003F02D00120009001E000200090009864
:1001B000012842D15B48006840F0100059490860AE
:1001C0000846006820F0030008600846006840F018
:1001D000020008605248406851494860084640683B
:1001E00048600846406840F48060486008464068BF
:1001F00020F47C1048600846406840F4E8104860ED
:100200000846006840F08070086000BF44480068FD
:1002100010F0007FFAD04248406820F003004049C7
:1002200048600846406840F00200486000BF3C4813
:10023000406800F00C000828F9D10CBD10B5FFF79C
:1002400093FF10BD10B53648006840F001003449F6
:10025000086008464068344908403149486008460B
:100260000068324908402E4908600846006820F4BA
:10027000802008600846406820F4FE0048604FF483
:100280001F008860FFF7DAFF4FF000602849086020
:1002900010BD10B5002100200022214B5B6803F047
:1002A0000C0121B1042906D0082928D107E0214BEF
:1002B000214C236027E01F4B1F4C236023E0184B89
:1002C0005B6803F47010164B5B6803F48032022302
:1002D00003EB904022B9194B4343174C23600DE0C8
:1002E0000F4B5B6813F4003F04D0144B4343124C94
:1002F000236003E00F4B43430F4C236003E00D4B9F
:100300000D4C236000BF00BF054B5B68C3F30313B4
:100310000B4CE15C084B1B68CB40074C236010BDC5
:1003200000100240002002400000FFF8FFFFF6FE30
:1003300008ED00E000127A000000002000093D00F6
:100340000400002031490143314A1160704770B503
:10035000002100230F22C4780CB32D4C246804F430
:10036000E064C4F5E064210AC1F10403CA404478A2
:1003700004FA03F18478144021430901254C0678DE
:10038000A155047804F01F050124AC4005786D11D7
:100390004FF0E02606EB8505C5F8004109E004783A
:1003A00004F01F050124AC401B4D0678761145F87A
:1003B000264070BD194A0A400243154B1B1F1A60A4
:1003C000704739B1124A121D12680243104B1B1DAF
:1003D0001A6006E00E4A121D126882430C4B1B1D68
:1003E0001A607047042808D14FF0E021096941F0F4
:1003F00004014FF0E022116107E04FF0E0210969AC
:1004000021F004014FF0E022116170470000FA056D
:100410000CED00E000E400E080E100E080FFFF1F61
:10042000002044490860091D0860091D0860091D75
:10043000086041483F4914310860704700213D4938
:100440008279002A3AD00A46126803689A430B461A
:100450001A600A1D126803689A430B1D1A6002791C
:1004600011440A6803681A430A60324A0832126863
:1004700003689A432F4B08331A601A1D12680368E9
:100480009A432C4B0C331A604279102A0ED11A1F52
:10049000126803681A43274B08331A601A1D126842
:1004A00003681A43234B0C331A600DE0214942794B
:1004B00011440A6803681A430A6005E0027911448E
:1004C0000A6803689A430A6070470021016001715D
:1004D0000C21417100218171704716491031096862
:1004E0000143144A10321160704701460020114A3E
:1004F000143212680A4201D0012000E00020704747
:100500000C49143108607047014600200022094B55
:100510001B6803EA0102074B14331B680B4202D02D
:100520000AB1012000E00020704702491431086040
:100530007047000000040140FFFF0F0030B943F294
:10054000DB014FF0204242F8201005E043F2D201D7
:100550004FF0204242F820106FF07042411C4FF0E3
:10056000204343F8212011461A4602EB8002C2F8CC
:100570000411704710280AD118214FF0204211664B
:10058000402151664FF0FC319166D16610E0182190
:10059000F84A11604FF040014FF02042C2F8841039
:1005A0004FF0FC31F44A11604FF02042C2F88C1039
:1005B00070471820F14908604FF000004FF02041CB
:1005C000C1F8A4004FF0FC30ED49086001F10401CE
:1005D000086001F1040108607047D0E9011211437D
:1005E000C268114302691143426911438269114390
:1005F000C2691143026A1143426A1143826A11437C
:10060000C26A1143026B11434FF02043026843F862
:1006100022108168082908D11A46016852F8211071
:1006200041F04001026843F82210416B0968426BB7
:10063000526841EA0211426B926841EA0221426B20
:10064000928941EA0241426B128A41EA0251426BAD
:10065000127D41EA0261426B926911430268521CA9
:100660004FF0204343F82210C16AB1F5804F1AD1F0
:10067000816B0968826B526841EA0211826B926851
:1006800041EA0221826B128A41EA0251826B127D99
:1006900041EA0261826B92691143026803EB8202B4
:1006A000C2F8041108E06FF070414FF02043026877
:1006B00003EB8202C2F80411704730B5002100221A
:1006C0000023446844F0080485682C43C5682C4323
:1006D00005692C43456944EA4524856944EA453166
:1006E000C4692468C5696D6844EA0524C5692D8913
:1006F00044EA0544C5692D7B44EA0562046A24681E
:10070000056A6D6844EA0524056A2D8944EA0544B2
:10071000056A2D7B44EA05630468102C05D14FF06F
:1007200020442166A266E36607E0924C21604FF008
:100730002044C4F88820934C236030BD016841F008
:100740001001426841EA4221826841EA42318B4A03
:100750001160C1680968C268526841EA0221C26832
:10076000128941EA0241C268127B41EA0261844A6D
:100770001160016909680269526841EA022102694F
:10078000128941EA02410269127B41EA02617E4A12
:100790001160416909684269526841EA022142696F
:1007A000128941EA02414269127B41EA02614FF03B
:1007B0002042C2F8B0107047002101600221416060
:1007C00000218160C160016141618161C16101629B
:1007D0004FF480514162490081620021C16201638E
:1007E0000F21426B1160426B5160FF21426B91609F
:1007F0000F21426BD160426B1161426B516100214C
:10080000426B91610F21826B1160826B5160FF21FD
:10081000826B91600F21826BD160826B1161826B60
:1008200051610021826B91617047102101600021AC
:1008300041608160C160016141618161FC21C269E7
:100840001160C2695160C2699160C269D160026A77
:100850001160026A5160026A9160026AD160704759
:100860000021016041608160FC21C2681160C268A2
:100870005160C2689160C268D1600269116002690A
:100880005160026991600269D160426911604269F8
:100890005160426991604269D160704751B14FF037
:1008A000204252F8202042F001024FF0204343F84A
:1008B000202009E04FF0204252F82020334B1A400C
:1008C0004FF0204343F82020704799B1102808D1F9
:1008D0004FF02042126E42F004024FF020431A669D
:1008E0001DE0244A126842F004024FF02043C3F88E
:1008F000802014E0102809D14FF02042126E234BC3
:10090000DB1E1A404FF020431A6608E0194A1268AD
:100910001F4B02EA03024FF02043C3F880207047C8
:1009200040B11649096841F004014FF02042C2F875
:10093000A01008E011490968154A01EA02014FF0C8
:100940002042C2F8A010704799B1102808D14FF08A
:100950002042126E42F040024FF020431A662DE012
:10096000044A126842F040024FF02043C3F880204E
:1009700024E00FE0800000A0880000A0A00000A0FC
:10098000A80000A08C0000A0AC0000A0FEFF0F009B
:10099000FBFF0F00102808D14FF02042126E684B69
:1009A0001A404FF020431A6608E0664A1268644B0A
:1009B00002EA03024FF02043C3F88020704701464B
:1009C0000020102903D14FF02042506F01E05E4A11
:1009D0001068704710B5F2B1102807D14FF02043CE
:1009E0005B6E0B434FF02044636632E0B0F5807FCE
:1009F00008D1564B1B6843EA01034FF02044C4F86A
:100A0000843026E0524B1B6843EA01034FF0204438
:100A1000C4F8A4301DE0102807D14FF020435B6ECE
:100A20008B434FF02044636613E0B0F5807F08D11C
:100A3000464B1B6823EA01034FF02044C4F884307E
:100A400007E0434B1B6823EA01034FF02044C4F83E
:100A5000A43010BD10B5024600200023102A03D197
:100A60004FF02044636E07E0B2F5807F02D1374C2F
:100A7000236801E0364C23680B4201D0012000E0DE
:100A8000002010BD102807D14FF02042526E8A433B
:100A90004FF020435A6613E0B0F5807F08D12B4A0F
:100AA000126822EA01024FF02043C3F8842007E0D5
:100AB000274A126822EA01024FF02043C3F8A4201B
:100AC000704770B502460020002300240025102A3C
:100AD00003D14FF02046736E07E0B2F5807F02D15C
:100AE0001A4E336801E01A4E336803EA010403EA40
:100AF000D10514B10DB1012000E0002070BD102817
:100B000008D14FF02042526E22EAD1024FF020432A
:100B10005A6613E0B0F5807F08D10C4A126822EAC9
:100B2000D1024FF02043C3F8842007E0084A12683E
:100B300022EAD1024FF02043C3F8A42070470000FE
:100B4000BFFF0F00800000A0940000A0840000A060
:100B5000A40000A010B50446CA48844208D101216F
:100B6000042000F027FB0021042000F023FB46E0D6
:100B7000C548844208D10121082000F01BFB002158
:100B8000082000F017FB3AE0C048844208D1012158
:100B9000102000F00FFB0021102000F00BFB2EE0D6
:100BA000BB48844208D10121202000F003FB002132
:100BB000202000F0FFFA22E0B648844208D101214B
:100BC000402000F0F7FA0021402000F0F3FA16E090
:100BD000B148844208D10121802000F0EBFA0021C5
:100BE000802000F0E7FA0AE0AC48844207D10121F6
:100BF000801500F0DFFA0021A01500F0DBFA10BD2F
:100C000010B50121084600F0D5FA0021012000F0BE
:100C1000D1FA10BD2DE9F041024600250026002042
:100C200000230024002791F803C00CF00F0591F871
:100C300003C01CF0100F03D091F802C04CEA050568
:100C400091F800C0BCF1000F31D0146800202BE0F7
:100C50004FF0010C0CFA00F3B1F800C00CEA0306E7
:100C60009E4220D183004FF00F0C0CFA03F7BC43D7
:100C700005FA03FC4CEA040491F803C0BCF1280F08
:100C800006D14FF0010C0CFA00FCC2F814C00AE0C7
:100C900091F803C0BCF1480F05D14FF0010C0CFADC
:100CA00000FCC2F810C0401C0828D1D31460B1F871
:100CB00000C0BCF1FF0F34DD546800202EE000F1CD
:100CC000080C4FF0010808FA0CF3B1F800C00CEA68
:100CD00003069E4221D183004FF00F0C0CFA03F75C
:100CE000BC4305FA03FC4CEA040491F803C0BCF1D0
:100CF000280F05D100F1080C08FA0CF8C2F814808E
:100D000091F803C0BCF1480F07D100F1080C4FF077
:100D1000010808FA0CF8C2F81080401C0828CED34D
:100D20005460BDE8F0814FF6FF71018002218170AF
:100D30000421C17070470246002093680B4201D025
:100D4000012000E0002070470146886880B27047AB
:100D500002460020D3680B4201D0012000E00020B1
:100D600070470146C86880B27047016170474161B1
:100D700070470AB1016100E041617047C16070478E
:100D80004FF480320A4382618161826182698269A3
:100D9000704702460020424B18684FF68073184097
:100DA00040EA021008433E4B186070473D49C86155
:100DB0007047F0B50A46002300240021002500F00A
:100DC0000046B6F1004F02D1354EF16901E0344ED4
:100DD0007168C0F3034583B200F44016B6F5401FB6
:100DE00008D121F070612E4E766826F070662C4F87
:100DF0007E6012E000F48016B6F5801F06D103264F
:100E000006FA05F4A14341F0706106E0460D360193
:100E100003FA06F6B14341F0706122B1460D360186
:100E200003FA06F6314300F00046B6F1004F02D156
:100E30001B4EF16101E01A4E7160F0BD30B5002229
:100E40008B071C0F0F2303FA04F2154B08338C1089
:100E500053F824309343124C08348D1044F8253055
:100E600023468C1053F824308C07240F00FA04F426
:100E700023430B4C08348D1044F8253030BD0A490B
:100E80000860704700080140000C0140001001405C
:100E90000014014000180140001C014000200140E6
:100EA0000000014000002042DC002042DD480068D4
:100EB00040F00100DB49086008464068DA49084014
:100EC000D849486008460068D8490840D5490860B4
:100ED0000846006820F4802008600846406820F436
:100EE000FE0048604FF41F0088607047CD490968D4
:100EF00021F48031CB4A11601146096821F4802128
:100F00001160B0F5803F03D0B0F5802F0ED106E020
:100F1000C449096841F48031C24A116007E0C149FF
:100F2000096841F4A021BF4A116000E000BF00BF82
:100F3000704710B501460022002300204A11012A03
:100F400002D1B84C236806E0022A02D1B54C236ACC
:100F500001E0B44C636A01F01F02012494401C427A
:100F600001D0012000E0002010BD38B50020009025
:100F70000024002500BF3120FFF7DBFF0546009865
:100F8000401C00900098B0F5A06F01D0002DF2D069
:100F90003120FFF7CEFF08B1012400E000242046F5
:100FA00038BD014600209F4A106820F0F80040EA52
:100FB000C100106070479E490860704702460020DB
:100FC000984B586820F47C1042EA01031843954B73
:100FD0005860704796490866704701460020914A5C
:100FE000506820F003000843506070478D48406807
:100FF00000F00C007047014600208A4A506820F03B
:10100000F00008435060704701460020854A506850
:1010100020F4E06008435060704701460020814A98
:10102000506820F4605040EAC1005060704729B118
:101030007C4A527A02437B4B5A7204E0794A527AD4
:101040008243784B5A7270477A490860704701466C
:101050000020744A506820F44040084350607047B4
:101060000021754A11706F4A82F82010012802D0C1
:10107000042808D103E001216F4A117004E0052122
:101080006D4A117000E000BF00BF70476B490860F7
:1010900070476449096A0143624A116270476749AF
:1010A00044390860704730B5002100220024002335
:1010B0005C4D6D6805F00C0121B1042905D00829AB
:1010C00023D105E05E4D056022E05D4D05601FE027
:1010D000544D6D6805F47012524D6D6805F48034FE
:1010E000022505EB92421CB9564D554305600BE0B5
:1010F0004C4D6D6815F4003F03D0524D55430560CB
:1011000002E04F4D5543056002E04D4D056000BFC4
:1011100000BF444D6D6805F0F00109094A4D6B5C54
:101120000568DD4045603F4D6D6805F4E061090AE2
:10113000454D6B5C4568DD4085603A4D6D6805F452
:101140006051C90A404D6B5C4568DD40C560354D56
:101150006D6805F44041890B3C4D6B5CC568B5FB7F
:10116000F3F5056130BD29B12E4A526902432D4B7A
:101170005A6104E02B4A526982432A4B5A617047F4
:1011800029B1284A92690243264B9A6104E0254A14
:1011900092698243234B9A61704729B1214AD269EF
:1011A0000243204BDA6104E01E4AD26982431D4BA0
:1011B000DA61704729B11B4AD2680243194BDA60E1
:1011C00004E0184AD2688243164BDA60704729B1AE
:1011D000144A12690243134B1A6104E0114A12695E
:1011E0008243104B1A6170471449403908607047B8
:1011F0000F49C86470470B49C87170470948406A75
:1012000040F0807007494862704701460020054A57
:1012100092680A4201D0012000E000207047014995
:1012200088727047001002400000FFF8FFFFF6FED2
:1012300000004242D8004242201002408004424254
:1012400000127A0000093D00140000202400002054
:1012500010B50446FB48844209D101218803FFF7F9
:10126000A9FF00214FF48040FFF7A4FF32E0F648C9
:10127000844209D101214804FFF7A9FF00214FF45E
:101280000030FFF7A4FF25E0F048844209D1012196
:101290008804FFF79CFF00214FF48020FFF797FFA1
:1012A00018E0EB48844209D10121C804FFF78FFF01
:1012B00000214FF40020FFF78AFF0BE0E54884424D
:1012C00008D101210805FFF782FF00214FF48010AB
:1012D000FFF77DFF10BD2DE9F04786B005460E46AD
:1012E0000024A24600BFA1460027B08900B100BF7C
:1012F0002F462C8A4CF6FF700440F08804432C8261
:10130000AC894EF6F3100440B088318908437189E6
:1013100008430443AC81AC8A4FF6FF400440B089D7
:101320000443AC8201A8FFF7BEFEC648874202D143
:10133000DDF810A001E0DDF80CA0A88910F4004F42
:1013400008D00AEBCA0000EB0A1031684900B0FB74
:10135000F1F807E00AEBCA0000EB0A1031688900D7
:10136000B0FBF1F86420B8FBF0F00401200964211F
:1013700001FB1089A88910F4004F08D0322000EB3F
:10138000C900B0FBF1F000F00700044308E0322090
:1013900000EB09106421B0FBF1F000F00F000443F2
:1013A0002C8106B0BDE8F0874FF416510160002192
:1013B0008180C18001810C214181002181817047A0
:1013C00010B502460020108A4FF2FF0318400B8828
:1013D0004C8823438C882343CC88234318431082B2
:1013E00010BD0021018041808180C180704721B102
:1013F000828942F40052828104E082894DF6FF73B3
:101400001A4082817047F0B503460024002600256B
:101410000020A1F510676A3F00D100BF1846C1F354
:10142000421401F01F06012707FA06F5012C01D12D
:101430000C3004E0022C01D1103000E014301AB15D
:1014400007682F43076002E00768AF430760F0BDFD
:101450001AB1838A0B43838202E0838A8B4383829F
:101460007047028A4FF6F0731A400282028A0A43DA
:101470000282704782894FF2FF731A40828182890B
:101480000A438281704721B1828942F0020282813F
:1014900004E082894FF6FD731A4082817047028A08
:1014A0004FF6DF731A400282028A0A4302827047B3
:1014B00021B1028A42F48042028204E0028A4BF6A1
:1014C000FF731A4002827047C1F30802828070479E
:1014D00001468888C0F308007047818941F0010106
:1014E00081817047028BD2B20283028B42EA0122D1
:1014F00002837047028B02F47F420283028B0A430D
:101500000283704721B1828A42F02002828204E085
:10151000828A4FF6DF731A408282704721B1828A35
:1015200042F01002828204E0828A4FF6EF731A4082
:101530008282704721B1828A42F00802828204E0EE
:10154000828A4FF6F7731A408282704721B18289EE
:1015500042F40042828103E08289C2F30E0282815A
:10156000704721B1828A42F40062828204E0828A5A
:101570004FF2FF731A4082827047828A4FF6FB73E4
:101580001A408282828A0A438282704721B1828A0B
:1015900042F00202828204E0828A4FF6FD731A4012
:1015A0008282704702460020B1F5007F00D100BF63
:1015B00013880B4201D0012000E00020704701F4A5
:1015C0000072B2F5007F00D100BFCA4302807047AD
:1015D00070B502460024002300250020A1F5106606
:1015E0006A3E00D100BFC1F3421501F01F0301267E
:1015F00006FA03F3012D02D19689334006E0022D4D
:1016000002D1168A334001E0968A33400C1201263B
:1016100006FA04F41688344013B10CB1012000E03E
:10162000002070BD10B500220023A1F510646A3CB3
:1016300000D100BF0A1201249440A3B2DC4304800D
:1016400010BD000000380140004400400048004048
:10165000004C0040005000408CB046A30FCBCDE9B9
:101660000923CDE9070147A103C9CDE901010025FF
:1016700000244DE00BA9522000F08CFB06462628E2
:1016800004D00BA9522000F085FB0646262E3FD140
:101690000BA800F0AAFB26283AD10BA800F018FCF2
:1016A000262835D1002726E00BAB01AA2146602071
:1016B00000F047FCC6B2262E03D1214633A002F02B
:1016C00065FA03A9204600F0C0FCC6B2002506E07A
:1016D00003A8415D30A002F059FA681CC5B2102D74
:1016E000F6DB2EA002F052FA601CC4B2642C00D1CA
:1016F0000024781CC7B2402FD6DB29480078401C54
:101700002749087008460078112801D10020087088
:10171000B0E708B500F07AF800F0DAF800F086F9E2
:1017200001F062FF1FA002F031FA00204FF4A07315
:10173000F0220146009000F0D6FF4FF4FC60022337
:10174000F0224FF488710090002000F0CCFF4FF49D
:101750007840002317A24FF48C710090184601F0D6
:101760008DF900F018FA412000F052FA01E0FFF77D
:1017700073FFFCE7010204060809000005060004E7
:1017800000060000FFFFFFFFFFFF0000C9C8C7F809
:1017900025643A2000000000253278000A0000008D
:1017A0002800002057462D524335323220546573AD
:1017B000740A0000506C6561736520707574207444
:1017C00068652049432063617264206F6E2057462C
:1017D0002D524335323220616E74656E6E61206128
:1017E000726561202E2E2E00704700BFFEE700BFFD
:1017F000FEE700BFFEE700BFFEE770477047704797
:1018000010B500F052F810BD7047000030B52B48FD
:1018100000682B4AB0FBF2F1B1F1807F01D30120C7
:101820001DE021F07F40401E4FF0E0225061501734
:101830000F22002807DA13071D0E224B00F00F04B9
:10184000241F1D5503E013071C0E1F4B1C5400BF23
:1018500000204FF0E022906107201061002008B1C5
:1018600000BFFEE74FF0E020006920F001004FF0DC
:10187000E021086130BD01B51449009808604FF0BF
:10188000E020006940F001004FF0E021086100BF56
:101890000E4800680028FBD14FF0E020006920F0DE
:1018A00001004FF0E021086108BD0848006820B140
:1018B00006480068401E0549086070470000002087
:1018C00040420F0018ED00E000E400E02C00002092
:1018D00000B585B0012144F20400FFF751FC4FF43C
:1018E0000070ADF8100018208DF8130003208DF85B
:1018F000120004A92148FFF78DF94FF48060ADF87C
:10190000100004208DF8130004A91C48FFF782F989
:101910004FF4E13000900020ADF80400ADF806006F
:10192000ADF80800ADF80C000C20ADF80A006946CF
:101930001348FFF7D0FC01211148FFF758FD05B00F
:1019400000BD70B504460D46E1B20D48FFF7BCFD81
:1019500000BF80210A48FFF725FE0028F9D0204665
:1019600070BD10B5044600BF20210548FFF71AFEE0
:101970000028F9D00248FFF7ABFD10BD0008014078
:101980000038014008B501210420FFF7F9FB1020C1
:10199000ADF8000003208DF8020010208DF8030040
:1019A00069462848FFF736F901210420FFF7E8FBD4
:1019B0002020ADF8000003208DF8020010208DF8E3
:1019C000030069461F48FFF725F901210420FFF7AE
:1019D000D7FB8020ADF8000003208DF80200102016
:1019E0008DF8030069461748FFF714F90121042018
:1019F000FFF7C6FB4020ADF8000004208DF803007F
:101A000069461048FFF706F901210820FFF7B8FBE7
:101A10000120ADF8000003208DF8020010208DF8A1
:101A2000030069460848FFF7F5F808BD10B5FFF751
:101A3000A9FF01210448FFF798F910210148FFF799
:101A400094F910BD00080140000C014070B5044637
:101A5000002520E014F0800F04D08021FE48FFF71D
:101A600084F903E08021FC48FFF781F9C820FFF7E3
:101A700002FF2021F848FFF77AF9C820FFF7FBFEA4
:101A80002021F548FFF771F9C820FFF7F4FE600642
:101A9000040E681CC5B2082DDCDB70BD70B50025D6
:101AA0001CE06006040E2021EB48FFF760F9C82017
:101AB000FFF7E1FE4021E848FFF73DF9012801D199
:101AC00044F00104C820FFF7D6FE2021E248FFF7CA
:101AD0004CF9C820FFF7CFFE681CC5B2082DE0DB2B
:101AE000204670BD70B504467E2000EA440040F0F8
:101AF00080051021D848FFF73AF92846FFF7A6FFDE
:101B0000FFF7CCFF06461021D348FFF72EF93046E9
:101B100070BD70B504460D467E2000EA44061021D3
:101B2000CD48FFF724F93046FFF790FF2846FFF72E
:101B30008DFF1021C848FFF718F970BD70B5054634
:101B40000C462846FFF7CEFF064646EA0401284623
:101B5000FFF7DFFF70BD70B505460C462846FFF75E
:101B6000C1FF064626EA04012846FFF7D2FF70BDF2
:101B700010B51420FFF7B6FF044614F0030F03D18D
:101B800003211420FFF7DAFF10BD10B50321142044
:101B9000FFF7E1FF10BD10B50121B048FFF7E5F8F0
:101BA0000120FFF768FE0121AC48FFF7E0F80120B3
:101BB000FFF761FE0121A948FFF7D7F80120FFF7E1
:101BC0005AFE0F210120FFF7A4FF00BF0120FFF7FD
:101BD00089FF10F0100FF9D10120FFF74CFE3D21D5
:101BE0001120FFF796FF1E212D20FFF792FF002105
:101BF0002C20FFF78EFF8D212A20FFF78AFF3E2140
:101C00002B20FFF786FF40211520FFF782FF10BD34
:101C100010B50446412C24D108210846FFF79BFF4C
:101C20003D211120FFF775FF86211720FFF771FF77
:101C30007F212620FFF76DFF1E212D20FFF769FF72
:101C400000212C20FFF765FF8D212A20FFF761FF7F
:101C50003E212B20FFF75DFF0220FFF70CFEFFF770
:101C600087FF10BD2DE9FE4F0646884691469A46ED
:101C7000DDF830B0BB2002900020019000900C2EC7
:101C800006D00E2E09D1122001901020009005E000
:101C9000772001903020009000E000BF00BF019845
:101CA00040F080010220FFF734FF80210420FFF77D
:101CB00052FF00210120FFF72CFF80210A20FFF7AF
:101CC0003DFF002505E018F805100920FFF721FF6A
:101CD0006D1C4D45F7D331460120FFF71AFF0C2E3E
:101CE00003D180210D20FFF729FF4FF47A7500BF43
:101CF0000420FFF7F7FE04466D1E2DB114F0010F0E
:101D000002D100980442F3D080210D20FFF723FF79
:101D100095B30620FFF7E6FE10F01B0F2DD126200D
:101D200002900198204010F0010F01D0CC200290C9
:101D30000C2E24D10A20FFF7D5FE04460C20FFF715
:101D4000D1FE00F007072FB1601E07EBC000CBF8F3
:101D5000000002E0E000CBF8000004B90124122CDE
:101D600000DD1224002505E00920FFF7BBFE0AF87C
:101D700005006D1CA542F7D301E0BB200290802135
:101D80000C20FFF7DBFE00210120FFF7C2FE0298C6
:101D9000BDE8FE8F70B588B005460C4608210846A0
:101DA000FFF7D9FE07210D20FFF7B3FE0321142012
:101DB000FFF7C4FE8DF80C5002A803AB012203A963
:101DC00000900C20FFF74EFF0646262E09D1029800
:101DD000102806D19DF80C0020709DF80D00607051
:101DE00000E0BB26304608B070BDF0B587B00546B0
:101DF000002708210846FFF7AEFE00210D20FFF75F
:101E000088FE80210E20FFF7A6FE93208DF80800A3
:101E100020208DF8090001A802AB022202A900903F
:101E20000C20FFF71FFF0646262E10D1002407E0E6
:101E300002A8005D285502A8005D4740601CC4B29E
:101E4000042CF5DB02A8005DB84200D0BB2680213F
:101E50000E20FFF773FE03E000080140000C014074
:101E6000304607B0F0BD2DE9F041074688461546DB
:101E700004210520FFF76FFE00210120FFF749FE36
:101E800080210A20FFF75AFE002405E0395D092071
:101E9000FFF73FFE601CC4B24445F7DB032101207D
:101EA000FFF737FEFF2400BF0520FFF71BFE0646A5
:101EB000601EC4B214B116F0040FF5D02220FFF753
:101EC00011FE28702120FFF70DFE6870BDE8F0813B
:101ED00070B588B0054693208DF80C0070208DF801
:101EE0000D0000208DF8120000240BE0295D03AAEC
:101EF000A01C11549DF81200295D48408DF8120075
:101F0000601CC4B2042CF1DB0DF11302072103A8FD
:101F1000FFF7A9FF08210846FFF71DFE02A803AB43
:101F2000092203A900900C20FFF79CFE0646262EEE
:101F300003D10298182800D100E0BB26304608B033
:101F400070BD2DE9F04387B006460F46904699468E
:101F50008DF808608DF80970002406E018F8041068
:101F600002AAA01C1154601CC4B2062CF6DB00248B
:101F700007E019F8041002AA04F108001154601CCB
:101F8000C4B2062CF5DB01A802AB0C2202A900901A
:101F90000E20FFF767FE0546262D05D10820FFF726
:101FA000A1FD10F0080F00D1BB25284607B0BDE801
:101FB000F083F0B587B006460F46A0208DF80800E4
:101FC0008DF809600DF10A02022102A8FFF74BFF0C
:101FD00001A802AB042202A900900C20FFF742FEE8
:101FE0000546262D08D10198042805D19DF8080042
:101FF00000F00F000A2800D0BB25262D22D1002496
:1020000004E0385D02A90855601CC4B2102CF8DB4E
:1020100006AA102102A8FFF726FF01A802AB122290
:1020200002A900900C20FFF71DFE0546262D08D1C1
:102030000198042805D19DF8080000F00F000A2837
:1020400000D0BB25284607B0F0BDF0B587B00546E7
:102050000E4630208DF808008DF809500DF10A0267
:10206000022102A8FFF7FFFE01A802AB042202A989
:1020700000900C20FFF7F6FD0746262F0CD10198A3
:10208000902809D1002404E002A8005D3055601CAE
:10209000C4B2102CF8DB00E0BB27384607B0F0BD17
:1020A00000B587B050208DF8080000208DF8090099
:1020B0000DF10A02022102A8FFF7D5FE01A802AB2A
:1020C000042202A900900C20FFF7CCFD262007B0C7
:1020D00000BDF8B504460D4617461E460020009088
:1020E00069465220FFF756FE6846FFF77EFE2046FF
:1020F000FFF7EEFE23462A4610216020FFF721FF5E
:1021000027B131461020FFF7A0FF03E03146102031
:10211000FFF74FFFFFF7C4FFF8BD000001B502E075
:102120000098401E009000980028F9D108BD08B51D
:1021300001210846FFF724F801216020FFF720F86D
:1021400003208DF8020018208DF803004CF2037074
:10215000ADF800006946FE48FEF75CFD4FF6807062
:10216000ADF800006946FB48FEF754FD03208DF8EA
:10217000020018208DF803001020ADF80000694619
:10218000F348FEF747FD2020ADF800006946F0480F
:10219000FEF740FD01210802FEF7F2FF4FF48050E8
:1021A000ADF800006946EC48FEF734FD01214020FF
:1021B000FEF7E6FF0420ADF800006946E548FEF7AB
:1021C00029FD10208DF8030003208DF80200012165
:1021D0000802FEF7D5FF4FF40060ADF80000694635
:1021E000DD48FEF717FD10208DF8030003208DF861
:1021F000020001210820FEF7C3FF0220ADF8000015
:102200006946D648FEF706FD08BD00B597B0012126
:102210000802FEF7A8FF022001900020029005208E
:10222000039000200490059006904FF08050079096
:10223000062008900020099008200A9010200B909A
:1022400000200C900E900F9010904FF48050119041
:10225000002012901390149001A81590169008A8D1
:10226000FEF7BBF901210620FEF718FB17B000BDF1
:1022700010B5CF2001F082FC002001F083FC81200A
:1022800001F080FC302001F07DFCED2001F076FCB7
:10229000642001F077FC032001F074FC122001F0AF
:1022A00071FC812001F06EFCE82001F067FC8520C4
:1022B00001F068FC102001F065FC782001F062FC60
:1022C000CB2001F05BFC392001F05CFC2C2001F0FC
:1022D00059FC002001F056FC342001F053FC022090
:1022E00001F050FCF72001F049FC202001F04AFCED
:1022F000EA2001F043FC002001F044FC002001F042
:1023000041FCB12001F03AFC002001F03BFC1B2015
:1023100001F038FCB62001F031FC0A2001F032FC5B
:10232000A22001F02FFCC02001F028FC352001F094
:1023300029FCC12001F022FC112001F023FCC52062
:1023400001F01CFC452001F01DFC452001F01AFCA9
:10235000C72001F013FCA22001F014FCF22001F0D0
:102360000DFC002001F00EFC262001F007FC0120EE
:1023700001F008FCE02001F001FC0F2001F002FC5C
:10238000262001F0FFFB242001F0FCFB0B2001F0D4
:10239000F9FB0E2001F0F6FB092001F0F3FB5420BD
:1023A00001F0F0FBA82001F0EDFB462001F0EAFB74
:1023B0000C2001F0E7FB172001F0E4FB092001F0FD
:1023C000E1FB0F2001F0DEFB072001F0DBFB00202A
:1023D00001F0D8FBE12001F0D1FB002001F0D2FB9D
:1023E000192001F0CFFB1B2001F0CCFB042001F0F1
:1023F000C9FB102001F0C6FB072001F0C3FB2A2017
:1024000001F0C0FB472001F0BDFB392001F0BAFB11
:10241000032001F0B7FB062001F0B4FB062001F019
:10242000B1FB302001F0AEFB382001F0ABFB0F20F8
:1024300001F0A8FB362001F0A1FBC82001F0A2FBAF
:102440002A2001F09BFB002001F09CFB002001F002
:1024500099FB002001F096FBEF2001F093FB2B206D
:1024600001F08CFB002001F08DFB002001F08AFBC5
:10247000012001F087FB3F2001F084FB3A2001F0AE
:102480007DFB552001F07EFB112001F077FB3448E5
:10249000FFF744FE292001F071FB10BD10B54FF489
:1024A00000612D48FEF763FC2D48FFF737FE4FF41F
:1024B00000612948FEF759FC2948FFF72FFE10BD9F
:1024C00010B5044624B102212448FEF750FC03E075
:1024D00002212248FEF749FC10BD10B5FFF727FE88
:1024E000FFF793FE0120FFF7EBFFFFF7D7FFFFF7A2
:1024F000BFFE10BD10B50446012C06D0022C34D00E
:10250000032C57D0042C2FD179E0362001F036FB74
:10251000C82001F037FB2A2001F030FB002001F039
:1025200031FB002001F02EFB002001F02BFBEF20FF
:1025300001F028FB2B2001F021FB002001F022FB01
:10254000002001F01FFB012001F01CFB3F2009E0EF
:10255000001401400018014000200140000C01401F
:10256000FCBF020001F00EFB6EE0362001F006FB1E
:10257000682001F007FB2A2001F000FB002001F099
:1025800001FB002001F0FEFA012001F0FBFA3F20E0
:1025900001F0F8FA2B2001F0F1FA002001F0F2FA34
:1025A000002001F0EFFA002001F0ECFAEF2001F03A
:1025B000E9FA49E0362001F0E1FA282001F0E2FAD8
:1025C0002A2001F0DBFA002001F0DCFA002001F003
:1025D000D9FA012001F0D6FA3F2001F0D3FA2B20DE
:1025E00001F0CCFA002001F0CDFA002001F0CAFA87
:1025F000002001F0C7FAEF2001F0C4FA24E03620F1
:1026000001F0BCFA482001F0BDFA2A2001F0B6FA28
:10261000002001F0B7FA002001F0B4FA002001F028
:10262000B1FAEF2001F0AEFA2B2001F0A7FA00205A
:1026300001F0A8FA002001F0A5FA012001F0A2FAA9
:102640003F2001F09FFA00BF00BF2C2001F096FA56
:1026500010BD2DE9F04104460D4616461F462A20BE
:1026600001F08CFA201201F08DFAE0B201F08AFA42
:10267000A119491EC1F30F2001F084FAA119491EC6
:10268000C8B201F07FFA2B2001F078FA281201F08D
:1026900079FAE8B201F076FAE919491EC1F30F2080
:1026A00001F070FAE919491EC8B201F06BFABDE8F1
:1026B000F08170B504460D4601231A46294620468E
:1026C000FFF7C7FF70BD70B504460D4600262C20ED
:1026D00001F054FA00BF03E0284601F053FA761CDB
:1026E000A642F9D370BD2DE9F04106460F461446C7
:1026F0001D46DDF818802B46224639463046FFF746
:10270000A8FF04FB05F04146FFF7DDFFBDE8F081BF
:1027100070B506460C461546F02E0ADAB4F5A07FD1
:1027200007DA21463046FFF7C4FF29460120FFF7AC
:10273000CAFF70BD70B50024002500262E2001F0D0
:102740001DFA01F017FA044601F014FA044601F0EC
:1027500011FA064601F00EFA0546E012C002A9126F
:1027600040EA411040EAE62070BD70B504460D46CF
:1027700029462046FFF79DFFFFF7DCFF064630465F
:1027800070BD2DE9FF4F85B081468A464FF0000BA2
:10279000002001900798A0EB09050898A0EB0A0615
:1027A000CDF80C90CDF808A0002D01DD012705E043
:1027B0000DB9002702E04FF0FF376D42002E02DD19
:1027C0004FF0010806E016B94FF0000802E04FF0A4
:1027D000FF387642B54201DD2C4600E03446002049
:1027E00004901EE0129ADDE90210FFF791FFAB445E
:1027F000019830440190A34505DDABEB040B039831
:10280000384480B203900198A04206DD0198001B75
:1028100001900298404480B202900498401C80B21B
:102820000490611C04988842DCDD09B0BDE8F08F9B
:102830002DE9F84304460D4616461F46DDE9088992
:10284000B9F1000F08D03B46324629462046CDF864
:102850000080FFF748FF2FE0A019401E82B22B46F0
:1028600029462046CDF80080FFF78BFFE819401E6F
:1028700083B2A019401E82B2E819401E81B22046E0
:10288000CDF80080FFF77DFFE819401E83B2224695
:1028900029462046CDF80080FFF773FFE919491E4D
:1028A0008BB2A119491E8AB2A119491E88B22946C4
:1028B000CDF80080FFF765FFBDE8F8832DE9F05FF4
:1028C00005460E4691469B4600240FFA89F70320E1
:1028D000A0EB49000FFA80FA97E00A98002848D048
:1028E000A04643E006EB080291B22A1990B25A467C
:1028F000FFF70EFF06EB080291B22A1B90B25A4670
:10290000FFF706FF321991B2A5EB080290B25A46C2
:10291000FFF7FEFE321B91B2A5EB080290B25A46B9
:10292000FFF7F6FEA6EB080291B22A1B90B25A46B8
:10293000FFF7EEFEA6EB080291B22A1990B25A46B2
:10294000FFF7E6FE321B91B205EB080290B25A4641
:10295000FFF7DEFE321991B205EB080290B25A463B
:10296000FFF7D6FE08F101000FFA80F8B845B9DD8F
:1029700037E0F21991B22A1990B25A46FFF7C8FE11
:10298000F21991B22A1B90B25A46FFF7C1FE3219D2
:1029900091B2EA1B90B25A46FFF7BAFE321B91B2CF
:1029A000EA1B90B25A46FFF7B3FEF21B91B22A1B04
:1029B00090B25A46FFF7ACFEF21B91B22A1990B2C0
:1029C0005A46FFF7A5FE321B91B2EA1990B25A4659
:1029D000FFF79EFE321991B2EA1990B25A46FFF7FC
:1029E00097FE601C04B2BAF1000F05DAA000801D4A
:1029F00050440FFA80FA07E0E01B80000A30504490
:102A00000FFA80FA781E07B200BFBC427FF765AFAD
:102A1000BDE8F09F2DE9F05F81468A4615461E46C7
:102A2000A5F1200000F0FF0B102308225146484674
:102A3000FFF70FFE2C2001F0A1F800241AE07F48D8
:102A400000EB0B10075D4FF000080EE017F0010FD0
:102A500003D00A9801F096F802E0304601F092F8AF
:102A60007F1008F1010000F0FF08B8F1080FEDDB5E
:102A7000601CC4B2102CE2DBBDE8F09F2DE9F843E6
:102A800005460E4614461F46DDF820801AE028460B
:102A90000830F02803DD002506F1100086B230462C
:102AA0001030B0F5A07F01DD00250026CDF80080B4
:102AB00022783B4631462846FFF7ACFF641C05F1FF
:102AC000080085B220780028E1D1BDE8F8832DE91F
:102AD000F04F89B08046894693461E46DDF848A0EF
:102AE00010231A4649464046FFF7B3FD2C2001F05B
:102AF00045F8002422E001A810F814504FF6FF70AA
:102B000000EA0525012000EB440001A9085C05430B
:102B100000270FE015F4004F03D0504601F032F8C3
:102B200002E0304601F02EF84FF6FF7000EA45054E
:102B3000781CC7B2102FEDDB601CC4B2102CDADB9E
:102B400009B0BDE8F08F2DE9F84305460E4614465E
:102B50009846DDF820901FE028461030F02803DD6D
:102B6000002506F1100086B230461030B0F5A07F87
:102B700001DD002500262788380200EB272087B2D8
:102B800043463A4631462846CDF80090FFF79FFF6E
:102B900005F1100085B2A41C20780028DCD1BDE826
:102BA000F8832DE9F84305460E4614469946DDF8AC
:102BB00020803EE020787E281BDC28460830F02864
:102BC00003DD002506F1100086B230461030B0F566
:102BD000A07F01DD00250026CDF8008022784B463D
:102BE00031462846FFF716FF05F1080085B2641C40
:102BF0001FE028461030F02803DD002506F1100004
:102C000086B230461030B0F5A07F01DD00250026E9
:102C10002788380200EB272087B24B463A463146D8
:102C20002846CDF80080FFF752FF05F1100085B26D
:102C3000A41C20780028BDD1BDE8F8835C400008C2
:102C400008B54FF4C060FDF77DFB17208DF800003C
:102C500000208DF801008DF8020001208DF803009E
:102C60006846FDF774FB08BD0EB501218120FEF713
:102C700087FAFFF7E5FF4FF40070ADF80800482031
:102C80008DF80B0002A9FE48FDF7C4FF09210520BD
:102C9000FEF7D4F84FF40070009000208DF8040087
:102CA0000C208DF8050001208DF806006846FDF720
:102CB000C5FB0EBD08B501214FF4C070FEF760FAE8
:102CC0008020ADF8000001208DF8020010208DF862
:102CD00003006946EB48FDF79DFF4FF40060ADF837
:102CE00000006946E648FDF795FF4020ADF800007A
:102CF00001208DF8020048208DF803006946E04865
:102D0000FDF788FF4FF48060ADF8000001208DF8DA
:102D1000020010208DF803006946D948FDF77AFFBC
:102D20004FF48061D648FEF722F808BD10B5FFF7D2
:102D3000C1FFFFF799FF10BD01B5002007E00C218E
:102D400000BF0A00A1F10103D9B2FAD1401C0099D9
:102D50008842F4D308BD70B505464FF40061C848F9
:102D6000FEF705F88021C748FEF701F8002421E0AE
:102D7000C4F1070045FA00F010F0010F05D04FF440
:102D80000061BF48FDF7F1FF04E04FF40061BC486B
:102D9000FDF7EDFF0520FFF7CFFF8021B948FDF7D4
:102DA000E4FF0520FFF7C8FF8021B648FDF7DFFFED
:102DB000601CC4B2082CDBDB70BD70B500254FF47D
:102DC0000061AF48FDF7D3FF8021AE48FDF7CDFF8E
:102DD000002414E08021AB48FDF7C9FF4021A8483A
:102DE000FDF7A9FF0646C4F10B0006FA00F02843E0
:102DF00085B28021A348FDF7B8FF601CC4B20C2C3B
:102E0000E8DB284670BD10B504462046FFF7A3FF57
:102E1000FFF7D3FF10BD2DE9F04104460D46902089
:102E2000FFF7F1FF06B20120FFF786FFD020FFF782
:102E3000EAFF07B226802F80BDE8F0812DE9F04738
:102E40008CB0064600252821684600F0DAFB00BF5A
:102E50000AA90BA8FFF7DFFFBDF92C002DF815001C
:102E6000BDF9281005A820F81510681CC5B24FF44C
:102E700000718348FDF75FFF08B90A2DE8DB4FF4C6
:102E800000717F48FDF757FF10B100207E490870A0
:102E90000A2D7BD1BDF90070B846BDF91490CA4621
:102EA00001240EE03DF91400B84202DA3DF9147035
:102EB00005E03DF91400404501DD3DF91480601C3A
:102EC000C4B20A2CEEDB012412E005A830F914008C
:102ED000484503DA05A830F9149007E005A830F951
:102EE0001400504502DD05A830F914A0601CC4B2DE
:102EF0000A2CEADBBDF90000BDF902100844BDF957
:102F000004100844BDF906100844BDF9081008442F
:102F1000BDF90A100844BDF90C100844BDF90E10A3
:102F20000844BDF910100844BDF912100844C01B34
:102F3000A0EB0800C0F3CF003080BDF91410BDF93C
:102F400016000144BDF918000144BDF91A000144FE
:102F5000BDF91C000144BDF91E000144BDF920006B
:102F60000144BDF922000144BDF924000144BDF92A
:102F700026000844A0EB0900A0EB0A00C0F3CF0034
:102F8000708001200CB0BDE8F087FFE70020F9E772
:102F90002DE9F04705460C4616464FF001092188F9
:102FA0002289891AE38862899A1A5143A28823895F
:102FB000D31A67886289BA1A03FB121000F0BBFCAF
:102FC000C6E90C0100221346D6E90C71384600F020
:102FD000E9FC02D14FF0000991E029882A89891A79
:102FE000E38862899A1A5143AA882B89D31A678881
:102FF0006289BA1A03FB121000F09DFCC6E90001B9
:1030000021882289891AAA882B89D21A51432A88B1
:10301000D21AA3882789DB1B02FB131000F08BFC5C
:10302000C6E902012189AA885143A2882B8902FBA3
:1030300013116288514322885A4323892F8803FB46
:103040001723E28803FB0212A18879432388AF8803
:1030500003FB1713618903FB012000F06CFCC6E938
:1030600004016A886989511AE38862899A1A51436E
:10307000EB886A899B1A67886289BA1A06E00000A1
:10308000001C0140002001406000002003FB1210E2
:1030900000F051FCC6E9060121882289891AEB88D3
:1030A0006A899A1A51436B886A899A1AA388278970
:1030B000DB1B02FB131000F03EFCC6E9080121896E
:1030C000EA885143A3886A8903FB1211628851433D
:1030D00022886B895A4323896F8803FB1723E28870
:1030E00003FB0213A18879432788EA8807FB1212A1
:1030F000618902FB013000F01EFCC6E90A01484666
:10310000BDE8F08738B504460D464FF47840A4F189
:103110000A01009088B2012314222946FFF7E3FA3E
:103120004FF478400090A5F10A0081B214230122E7
:103130002046FFF7D8FA38BD2DE9F04FA7B04FF081
:103140000009CA4600202390229083464FF4A074C1
:10315000F025A010ADF87800A810ADF87A00BDF801
:103160007800ADF87C0005EB450081101EA8C180F9
:1031700004EB44008010ADF880001EA8C188418196
:10318000BDF88000ADF88400BDF87A101EA8C1819A
:103190000220FFF7AFF9002640E000202B46224630
:1031A00001460090FFF79FFA0FF2DC3B584600F013
:1031B00033FAC01FA4EBC000C0F34F074FF47840B0
:1031C000691000235A4600903846FFF757FC721CDE
:1031D000F3A124A800F0EAFC4FF478401022C2EBDF
:1031E000650291B200906010002324AAFFF746FC0C
:1031F000EC48FFF7A1FD1EAA02EB860251881EAA29
:1032000032F82600FFF77EFF00BF1AA901EB860007
:10321000FFF714FE0028F8D0701CC6B2042EBCDBE9
:103220000CAA1AA91EA8FFF7B3FE00221346DDE977
:103230001871384600F0B6FB00D10DE11AA9C88913
:1032400000F08AFBCDE90001DDE90E733A4600F09B
:1032500091FACDE90401BDF8740000F07DFBCDE9E1
:103260000001DDE90C733A4600F084FACDE9020171
:10327000DDE9042300F0D7F9CDE90601DDE910739B
:103280003A4600F0D0F9CDE90801DDE918733A4675
:1032900000F0E2FACDE90A0100F06BFB1FFA80F9B9
:1032A0001AA9C88900F058FBCDE90001DDE91473C3
:1032B0003A4600F05FFACDE90401BDF8740000F071
:1032C0004BFBCDE90001DDE912733A4600F052FAFA
:1032D000CDE90201DDE9042300F0A5F9CDE90601FD
:1032E000DDE916733A4600F09EF9CDE90801DDE903
:1032F00018733A4600F0B0FACDE90A0100F039FB44
:103300001FFA80FABDF88400484504DABDF884004D
:10331000A9EB000003E0BDF88400A0EB090080B237
:1033200023901EA8C089504504DA1EA8C089AAEBC4
:10333000000003E01EA8C089A0EB0A0080B2229022
:1033400023980A2802DC22980A2800DD84E0002263
:10335000954BDDE90C71384600F00CFACDE90A0115
:10336000DDE918733A4600F077FA904A03C200226A
:103370008D4BDDE90E71384600F0FCF9CDE90A010C
:10338000DDE918733A4600F067FA884AC2E902019B
:103390000022854BDDE91071384600F0EBF9CDE9EC
:1033A0000A01DDE918733A4600F056FA7F4AC2E98D
:1033B000040100227C4BDDE91271384600F0DAF995
:1033C000CDE90A01DDE918733A4600F045FA774A7B
:1033D000C2E906010022744BDDE91471384600F0A1
:1033E000C9F9CDE90A01DDE918733A4600F034FA6B
:1033F0006E4AC2E9080100226B4BDDE916713846BE
:1034000000F0B8F9CDE90A01DDE918733A4600F099
:1034100023FA664AC2E90A0100202B4622460146E9
:103420000090FFF760F90FF2881B584600F0F4F89F
:10343000A4EBC000C0F34F074FF47840691000239D
:103440005A4600903846FFF719FB5E48FFF774FCB8
:10345000012027B0BDE8F08F00202B462246014610
:103460000090FFF740F90FF2601B584600F0D4F8C7
:10347000A4EBC000C0F34F074FF47840691000235D
:103480005A4600903846FFF7F9FA0FF24C1B58469F
:1034900000F0C2F8A4EBC000C0F34F074FF478402F
:1034A0000090102000EB650100235A463846FFF7D4
:1034B000E5FA4C48FFF740FC0020CAE72DE9F04F41
:1034C00089B081460C460120079006A8FFF7B6FC9C
:1034D000002852D0BDF81A0000F03EFA0546D4E9A3
:1034E00002733A4600F046F982468B46BDF8180052
:1034F00000F032FA0746D4E900532A4600F03AF9C0
:1035000052465B46CDE9000100F08DF8CDE902019D
:10351000D4E904532A4600F086F8CDE9040100F00E
:1035200028FAA9F80000BDF81A0000F015FA0746BD
:10353000D4E908532A4600F01DF982468B46BDF8AF
:10354000180000F009FA0746D4E906532A4600F0AD
:1035500011F952465B46CDE9000100F064F8CDE96F
:103560000201D4E90A532A4600F05DF8CDE90401CE
:1035700000F0FFF9A9F8020001E000200790079889
:1035800009B0BDE8F08F0000546F75636820436197
:103590006C696272617465202E2E2E2E2E2E000014
:1035A00025640000A08601000000F03F30000020EC
:1035B00043616C696272617465205375636365640D
:1035C00000000000400D030043616C696272617489
:1035D00065206661696C00007472792061676169B9
:1035E0006E00000040420F0010B5FEF776FFFFF7B7
:1035F0009DFB10BDD2B201E000F8012B491EFBD2A9
:1036000070470022F6E710B513460A4604461946ED
:10361000FFF7F0FF204610BD421C10F8011B0029E7
:10362000FBD1801A70472DE9FE4F804681EA0300E6
:10363000C00F0C46009021F0004123F00045B8EB8C
:103640000200A94105D24046214690461C460B4641
:10365000024623F00040104304D14046214603B007
:10366000BDE8F08F270DC7F30A00C3F30A5102909B
:10367000401A0190402866DAC3F3130040F4801B1F
:103680000098924620B10023D2EB030A63EB0B0BA8
:1036900001985946C0F14002504600F0C8F906466C
:1036A0000D4650465946019A00F0E0F910EB08002B
:1036B0006141002487EA115284EAE7731A433BD040
:1036C000009A3AB3019A012A4FEA075210DC001B14
:1036D00061EB02014FF0004202EA0752CDE90042DD
:1036E000001C41F5801132462B4600F0DEF9B6E7AA
:1036F000001B61EB0201001C41F5801300185B41C7
:103700002018A2F5001747EB030140EAD570B6195F
:103710006D4111E06D084FEA360645EAC0754FEA83
:103720000752001B61EB0201001C41F580114908A2
:103730004FEA30000019514132462B4603B0BDE834
:10374000F04F00F0A5B90098012240000023D0EB13
:10375000020263EBE073009821464FEAE074B8EB95
:10376000000061EB0401E9E783F000435BE781F0CF
:10377000004158E72DE9FE4F81EA030404F00044BC
:1037800021F0004100944FF0000B23F0004350EA79
:10379000010402D052EA030404D10020014603B020
:1037A000BDE8F08FC3F30A54C1F30A552C44A4F2C8
:1037B000F3340194A0FB0254C1F3130141F48011CE
:1037C000C3F3130343F4801301FB024400FB034ED5
:1037D000840A970A44EA815447EA8357A4FB07689E
:1037E00002958D0A05FB07854FEA932C04FB0C54C8
:1037F0002705029D4FEA065847EA1637B5EB08053C
:103800006EEB070C870E920E47EA811742EA83128D
:10381000A7FB0201B6EB0B0164EB00042B0D43EA9E
:103820000C335E1844EB1C50DA465146E7FB0201AC
:10383000C5F313044FEA0B3343EA14534FEA04323F
:10384000019C43EA0603A4F10C040294009CCDE918
:1038500000B400F02AF9A2E72DE9F04D81EA030453
:1038600004F0004B21F0004514464FF0000A23F00D
:10387000004150EA050220D054EA01021DD0C5F3F0
:103880000A570246C5F31303C1F31300C1F30A56E6
:1038900040F4801543F48013A7EB0608101BD646AE
:1038A00008F2FD3873EB050002D308F1010801E0CE
:1038B00092185B41B8F1000F03DA00200146BDE821
:1038C000F08D00204FF48011064684460EE0171B51
:1038D00073EB050705D3121B63EB050306434CEAA4
:1038E000010C49084FEA300092185B4150EA010789
:1038F000EDD152EA030012D082EA040083EA050106
:10390000084303D100224FF0004308E0101BAB41F5
:1039100002D20122002302E06FF0010253101AEBE1
:1039200006004CEB085110EB0A0041EB0B01BDE81F
:10393000F04D00F0ADB80EB5C10F80EAE07008445C
:10394000CA07002140F233438DE80E000A460B46B9
:1039500000F0ABF803B000BD0EB540F23341029168
:103960000021CDE900110A460B4600F09EF803B095
:1039700000BDC1F30A5210B5C1F3130140F2FF3389
:1039800041F480119A4201DA002010BD40F2334325
:103990009A42A2F2334203DC524200F057F810BDC3
:1039A000904010BD30B5002904DB4FF00044404288
:1039B00064EB0101002B04DB4FF00044524264EB46
:1039C00003038B4208BF824230BD00002DE9F05F47
:1039D0000546002092469B4688460646814640247E
:1039E0001BE0284641464746224600F02FF8534642
:1039F0005A46C01A914110D311461846224600F08B
:103A000016F82D1A67EB01084F46224601200021C7
:103A100000F00DF817EB00094E41201EA4F101043F
:103A2000DFDC484631462A464346BDE8F09F202A5F
:103A300004DB203A00FA02F1002070479140C2F105
:103A4000200320FA03F3194390407047202A04DB37
:103A5000203A21FA02F00021704721FA02F3D04007
:103A6000C2F120029140084319467047202A06DB24
:103A7000CB17203A41FA02F043EAE07306E041FA3C
:103A800002F3D040C2F1200291400843194670472A
:103A900010B5002B08DA401C41F1000192185B417F
:103AA0001A4301D120F0010010BD2DE9F04D9246DE
:103AB0009B4611B1B1FA81F202E0B0FA80F22032F5
:103AC0009046FFF7B4FF04460F4640EA0A0041EA79
:103AD0000B0153465A46084303D120463946BDE8F8
:103AE000F08D114653EA010015D0C8F1400250464E
:103AF000FFF7ACFF05460E46504659464246FFF7D3
:103B000096FF084301D0012000E00020054346EA6B
:103B1000E0762C4337430A984FEA4453A0EB080061
:103B20004FEAD4240A304FF0000244EA47544FEAE7
:103B3000D72502D500200146D1E7010510196941BA
:103B4000DDE9084500196941BDE8F04DA0E7000036
:103B5000064C074D06E0E06840F0010394E80700DA
:103B600098471034AC42F6D3FCF7E6FA4C4600080E
:103B70006C4600084FF0DA40008870474FF0D8419B
:103B8000088070474FF0DA41088070470FB4054B4A
:103B900010B503A9044A029800F02CF810BC5DF897
:103BA00014FB000043190008640000200FB4084B08
:103BB00010B504A902AA039800F01CF8044602A953
:103BC000002000F046FA204610BC5DF814FB00000F
:103BD0005340000802E008C8121F08C1002AFAD1A9
:103BE00070477047002001E001C1121F002AFBD17D
:103BF000704700002DE9FF4F8DB00F4605460026A7
:103C0000DEE1252874D100246D1CF149A246A146AD
:103C100001222B78203B02FA03F0084202D0044331
:103C20006D1CF6E728782A2810D06FF02F0228782C
:103C3000A0F13001092915D80AEB8A0102EB4101F4
:103C400044F0020400EB010A6D1CF0E757F804ABE6
:103C5000BAF1000F03DA44F40054CAF1000A44F048
:103C600002046D1C28782E2817D115F8010F44F096
:103C700004042A280ED06FF02F022878A0F130011A
:103C800009290AD809EB890102EB410100EB01097E
:103C90006D1CF2E757F8049B6D1C28786C280FD038
:103CA00006DC4C2817D068280DD06A2814D104E00F
:103CB000742810D07A280FD10DE044F400140AE0E3
:103CC00044F4801401E044F440146978814202D144
:103CD0006D1C04F580146D1C2A786E2A20D00DDC32
:103CE000632A33D005DC002A6FD0582A12D1A2E013
:103CF00011E0642A6AD0692A0CD167E0732A2FD0B8
:103D000004DC6F2A6FD0702A04D199E0752A6BD039
:103D1000782A6AD01046DDE90F129047761C4EE1F2
:103D2000C4F30250022806D003280AD0042801CF89
:103D30000AD0066043E101CF4FEAE671C0E90061B5
:103D40003DE101CF06803AE1067038E117F8040B37
:103D50008DF8000000208DF80100EB46012003E003
:103D600057F804BB4FF0FF3061074FF0000102D459
:103D70000DE008F10101884649450FDA8045F8DB7E
:103D80001BF808100029F4D108E008F10101884669
:103D90008142FADB1BF808100029F6D1DDE90F2378
:103DA000AAEB08008146214600F03BF9304400EBC5
:103DB000080604E0DDE90F121BF8010B9047B8F18B
:103DC0000108F7D221464846F4E0FDE00A21C4F399
:103DD00002534FF0000B0891022B07D001CFC117FF
:103DE000032B09D00AE034E023E024E0FF1D27F094
:103DF0000707F7E8020105E000B2C117042B01D163
:103E000040B2C117002907DA4FF0000CD0EB0C00CC
:103E10006CEB01012D2302E0230504D52B238DF843
:103E20002430012303E0E30701D02023F7E798467D
:103E300050E00A210EE010204FF0000B08900CE03B
:103E400010214FF0000B44F004044FF008090891D2
:103E500003E008214FF0000B0891C4F30253022B3A
:103E600004D001CF0021032B06D006E0FF1D27F070
:103E70000707F7E8020103E080B2042B00D1C0B2CB
:103E80004FF00008230725D5702A2AD0DDF820C07E
:103E90008CF0100C5CEA0B0C09D150EA010306D03F
:103EA00030238DF824308DF8252002239846DDF844
:103EB00020C08CF0080C5CEA0B0C0BD150EA01031B
:103EC00001D1630706D530238DF824304FF0010867
:103ED000A9F10109582A09D03EA20B9208AA0A9218
:103EE00011E040238DF824300123DFE73EA2F4E700
:103EF0005B46089AFFF76AFD0B9B9B5C0A9AA2F14E
:103F000001020A92137050EA0102F1D10A98ADEB56
:103F1000000000F1200B600702D524F4803401E09A
:103F20004FF00109D94502DDA9EB0B0000E00020AC
:103F300000EB0B0141440890AAEB010AE00306D410
:103F4000DDE90F232146504600F06BF806440020BF
:103F500008E009A911F80900DDE90F129047761C65
:103F600009F1010081464045F3DBE0030CD5DDE9B2
:103F70000F232146504600F054F8064404E0DDE9E2
:103F80000F1230209047761C0899481E089000298F
:103F9000F5DC08E00A980A990078491C0A91DDE9E5
:103FA0000F129047761CBBF10001ABF1010BF1DC65
:103FB00021465046DDE90F2300F020F806446D1C31
:103FC000287800287FF41DAE11B03046BDE8F08F90
:103FD00009280100303132333435363738396162DF
:103FE00063646566000000003031323334353637A3
:103FF0003839414243444546000000002DE9F04174
:10400000044600251E461746880405D406E03946B6
:104010002020B04705F10105641EF8D52846BDE80B
:10402000F0812DE9F041044600251E469046C80364
:1040300001D5302700E02027880405D506E0414659
:104040003846B04705F10105641EF8D52846BDE89D
:10405000F0810A68531C0B6010707047000000006C
:104060000000000000000000000000000000001838
:104070003C3C3C18180018180000000000000066C6
:104080006666000000000000000000000000006CF8
:104090006CFE6C6C6CFE6C6C000000000018183C30
:1040A00066060C183060663C1818000000000E1BF5
:1040B0005B6E30180C76DAD8700000000000001C2F
:1040C00036361C06F66666DC0000000000000018AC
:1040D0001818000000000000000000000000003080
:1040E00018180C0C0C0C0C18183000000000000CF8
:1040F0001818303030303018180C00000000000064
:10410000006C38FE386C0000000000000000000069
:104110000018187E181800000000000000000000C1
:1041200000000000000038383018000000000000D7
:104130000000007E00000000000000000000000001
:10414000000000000000383800000000000000609F
:1041500060303018180C0C060600000000000078D3
:10416000CCECECCCDCDCCC780000000000000030B3
:10417000383E303030303030000000000000003C6D
:1041800066666030180C067E000000000000003CEF
:10419000666660386066663C000000000000000C47
:1041A0000C6C6C6C66FE6060000000000000007E1D
:1041B0000606063E6060301E000000000000003869
:1041C000180C3E666666663C000000000000007E3B
:1041D00060303018180C0C0C000000000000003C8F
:1041E00066666E3C7666663C000000000000003C9F
:1041F000666666667C30181C000000000000000047
:1042000000383800000038380000000000000000CE
:104210000038380000003838301800000000006016
:1042200030180C060C183060000000000000000080
:1042300000007E007E00000000000000000000067C
:104240000C18306030180C06000000000000003C24
:104250006666301818001818000000000000007E84
:10426000C3C3F3DBDBF303FE000000000000001813
:104270003C6666667E666666000000000000003EE2
:104280006666663E6666663E000000000000003C12
:10429000666606060666663C000000000000001E1A
:1042A000366666666666361E000000000000007E08
:1042B0000606063E0606067E000000000000007EA0
:1042C0000606063E06060606000000000000003C4A
:1042D000666606067666667C0000000000000066E2
:1042E0006666667E66666666000000000000003C4A
:1042F000181818181818183C00000000000000607A
:10430000606060606066663C00000000000000665F
:104310006636361E3636666600000000000000066F
:10432000060606060606067E00000000000000C61F
:10433000C6EED6D6D6C6C6C600000000000000C62F
:10434000C6CEDEF6E6C6C6C6000000000000003C91
:10435000666666666666663C000000000000003E19
:104360006666663E06060606000000000000003C89
:10437000666666666666663C306000000000003E69
:104380006666663E36666666000000000000003C19
:1043900066060C183060663C000000000000007EDD
:1043A00018181818181818180000000000000066E7
:1043B000666666666666663C000000000000006691
:1043C0006666666666663C1800000000000000C66F
:1043D000C6C6D6D6D66C6C6C000000000000006625
:1043E000662C18183466666600000000000000663F
:1043F0006666663C18181818000000000000007E71
:10440000606030180C06067E000000000000003CD2
:104410000C0C0C0C0C0C0C0C0C0C3C0000000006E2
:10442000060C0C1818303060600000000000003CE2
:10443000303030303030303030303C0000183C66A6
:10444000000000000000000000000000000000006C
:1044500000000000000000000000FF00001C1830F9
:10446000000000000000000000000000000000004C
:10447000003C60607C66667C000000000000000676
:10448000063E66666666663E0000000000000000AC
:10449000003C66060606663C000000000000006066
:1044A000607C66666666667C0000000000000000B6
:1044B000003C66667E06063C0000000000000078B6
:1044C0000C0C0C7E0C0C0C0C00000000000000001A
:1044D000007C66666666667C60603E0000000006E2
:1044E000063E6666666666660000000000001818F4
:1044F000001E18181818187E000000000000303048
:10450000003C30303030303030301E0000000006CB
:10451000066666361E366666000000000000001E55
:10452000181818181818187E000000000000000065
:10453000007ED6D6D6D6D6C6000000000000000009
:10454000003E6666666666660000000000000000C9
:10455000003C66666666663C0000000000000000E5
:10456000003E66666666663E0606060000000000BF
:10457000007C66666666667C606060000000000025
:104580000066760E06060606000000000000000029
:10459000007C06063C60603E000000000000000C4D
:1045A0000C7E0C0C0C0C0C780000000000000000CD
:1045B000006666666666667C00000000000000001B
:1045C0000066666666663C18000000000000000099
:1045D00000C6D6D6D6D66C6C0000000000000000E5
:1045E0000066663C183C66660000000000000000A3
:1045F000006666666666663C30180F0000000000C4
:10460000007E6030180C067E0000000000000030C4
:104610001818180C060C18181830000000000018A4
:104620001818181818181818181818000000000C76
:104630001818183060301818180C00000000008E90
:10464000DB71000000000000000000006C46000864
:104650000000002068000000D43B0008D446000899
:104660006800002000040000E43B000800A24A04A7
:104670000000000000000000010203040607080912
:1046800000000000010203040102030406070809F8
:10469000020406080000000000000000925ED4EE54
:1046A0005701B63F2BA226FA7C9451BF3CF54883B4
:1046B000DBEA13C079E9263108AC5CBF08E8BE9C90
:1046C000D9AEB03F1C5C3AE63CA32AC00000000013
:0446D00000000000E6
:0400000508000131BD
:00000001FF
